:020000041028C2
:1000000000000C28294B2810494E2810A54C281018
:100010004D4E2810514E2810554E2810000000005B
:10002000000000000000000000000000414D28100A
:10003000594E2810000000005D4E2810614E281017
:10004000CF432810F54328101B44281041442810A2
:10005000674428108D442810B3442810D944281030
:10006000654E2810694E28106D4E2810714E2810CC
:10007000754E2810794E28107D4E2810814E28107C
:1000800040F0200070472DE9F14FB0B09246049146
:100090000DF142013A9A2B9199464A7000200AE0EC
:1000A0001AF8011B0498309A90470028049000F039
:1000B00034860D98401C0D909AF8000050B1252808
:1000C000EED1002100220791089209910A920B912A
:1000D0000C9204E00D9800F022BE41F001011AF8E4
:1000E000010F2028F9D023280CD02B2804D02D284C
:1000F00005D0302809D00BE041F00201EFE741F0D4
:100100000401ECE741F00801E9E741F01001E6E7FE
:100110002A280FD1D9F8002052F8040BC9F8002082
:1001200000280F9003D540420F9041F004010AF1DE
:10013000010A14E00F92DFF8EC3B0AE00F989842B6
:1001400005DA00EB800402EB4402303A0F920AF128
:10015000010A9AF80020A2F130000A28EED39AF89A
:1001600000002E2803D04FF0FF320E9229E01AF83B
:10017000010F2A2809D1D9F8000050F8042BC9F83A
:1001800000000E920AF1010A1BE02D280CBF0AF1B3
:10019000010A002000220E92DFF8884B0BE040B9E4
:1001A0000E9AA24205DA02EB820503EB4503303BCF
:1001B0000E930AF1010A9AF80030A3F130020A2ADC
:1001C000EDD3ADF840100FF660309AF8001000F053
:1001D000EDFE08B11AF8010B8DF842009DF84200BF
:1001E000682805D19AF8000068280CD1622106E041
:1001F0006C2804BF9AF800006C2804D171218DF896
:1002000042100AF1010A12A806901AF801BBBBF1CC
:1002100025012CD01C3900F09481091F022940F2DD
:100220009081133900F0AB84093900F08A81891E6E
:1002300000F04085491E00F0ED84491E022940F27D
:100240008081091F00F0E684491F00F0EF80491EFD
:1002500000F09584491E00F0D780C91E0CD0891E7D
:1002600000F08D84C91E00F08A8400F02EBD0123A9
:100270000793252100F026BDD9F8000050F8044B63
:10028000C9F80000002C059440F0AB802B99487809
:10029000002800F0A1804FF0FF340FF6942000F00A
:1002A00095FE241A40F0398500F01BBD01236A46F3
:1002B00002A9304600F000FE002840F02E85641EA2
:1002C000F4D13096079C12AF74B1309E17F8011B21
:1002D0000498B0470028049000F01F850D98401C3A
:1002E000641E0D90F2D130960A9C3021002C8DF8BE
:1002F00000100CDD309E01236A4602A9304600F052
:10030000DBFD002840F00985641EF4D13096059F7E
:10031000089C74B1309E17F8011B0498B047002860
:10032000049000F0FA840D98401C641E0D90F2D1E8
:1003300030960B9C3021002C8DF800100CDD309E87
:1003400001236A4602A9304600F0B6FD002840F0BD
:10035000E484641EF4D1309605980899099C4718E6
:1003600074B1309E17F8011B0498B0470028049020
:1003700000F0D3840D98401C641E0D90F2D130968D
:100380000C9C3021002C8DF800100CDD309E0123D8
:100390006A4602A9304600F08FFD002840F0BD8477
:1003A000641EF4D130969DF8400041077FF584AE7D
:1003B0002020002D8DF800007FF77EAE309C0123B9
:1003C0006A4602A9204600F077FD002840F0A58487
:1003D0006D1EF4D130946FE60FF63C30059000F0BE
:1003E00080BC0E9D002D04D5204600F00FFE044673
:1003F00007E02A46204600F025FE002814BF041B13
:100400002C46089400F06DBCD9F8001051F8040B8C
:10041000C9F8001020F00004002121F0FF35CDE9DB
:10042000024512AB0593782100F040BC2B99487827
:1004300020B14FF0FF340FF6B02030E79DF84200B6
:10044000622860D0682817D06A283FD06C2806D070
:10045000712847D074282CD07A281DD062E0D9F8B2
:10046000001051F8040BC9F80010002866D14FF0B5
:10047000FF340FF68C2012E7D9F8001051F8040B66
:10048000C9F8001020B94FF0FF340FF6742006E7CA
:100490000D99018000F025BCD9F8001051F8040B2B
:1004A000C9F80010002849D14FF0FF340FF6502052
:1004B000F5E6D9F8001051F8040BC9F8001000282F
:1004C0003CD14FF0FF340FF63820E8E6D9F80010A1
:1004D00051F8040BC9F8001080B94FF0FF340FF643
:1004E0002020DCE6D9F8001051F8040BC9F8001000
:1004F00020B94FF0FF340FF60820D0E60D9AD3173D
:10050000C0E90023EDE3D9F8001051F8040BC9F855
:10051000001020B94FF0FF340FF6E410BFE60D993C
:100520000170DEE3D9F8001051F8040BC9F800108F
:1005300020B94FF0FF340FF6C810B0E60D990160F6
:10054000CFE39DF842004C2807BFD9F80010CA1D20
:10055000D9F80000C21D22F00702C9F80020D2E934
:1005600000010832C9F80020CDE90201C80F02D00D
:1005700007982D210AE0BDF84000810702D50798B1
:100580002B2103E0C00705D50798202112AA11549A
:10059000401C079012A807994BF0200300EB010CB8
:1005A000DDE90201CDE92C01612BCDF814C021ACAD
:1005B0000BD00E98002848BF062105D404BF4BF08D
:1005C0002000672801D101210E91DDE902014F00D1
:1005D00047EAD0777E15FF174FF0FF32974208BFEA
:1005E000964210D1090341EA10510003002908BFC7
:1005F000002808D0ABF1610503211A2D089118D30A
:100600000FF61C1110E0DDE902014A00521512F14B
:10061000010F11D108030FD1ABF1610503211A2D90
:1006200008911FD30FF600110322604600F036FD3B
:1006300057E30FF6E801F7E7DDE902016A4600F04B
:1006400081FDCDE902014BF02000612811D1059810
:1006500030210170821C0592BBF1610F0CBF782123
:10066000582102E00FF6BC01DEE741700798801CBC
:100670000790DDE9020120F0000231F0004308BFDD
:10068000002A02D10026002542E14BF02008B8F1F3
:10069000610F40F092800E98002847BF2121019100
:1006A000401C0190019FDDE92C017F1C00220023EA
:1006B000DDE9024500F07EFD38BF85F00045009978
:1006C0008DF88420091F002F00910DF1850632DD81
:1006D000204629460022002300F086FD2BD21C2252
:1006E00000F09CFD04460D4600F01AFEFF1F002F8F
:1006F000804609DD00F01BFE02460B4620462946D7
:1007000000F01CFE04460D46F01D0721B8F1000F55
:100710000CDD491E5EBF08F00F0200F8012D4FEA04
:100720002818F3D502E0002200F8012D491EFAD561
:10073000C61D002FCCDC0DF18500361A01980DF195
:1007400085048642D8BF304600282FD4B04206DA4E
:100750000DF185010A5C082AA8BF0F2100DA0021EB
:10076000024621AB134400E0401E13F80159521E0B
:100770008D42F9D00F2904D10DF185018B5C5B1CF2
:100780008B54002A04D50099091D21AC401C00910E
:10079000411E0BD4621813783033DDB23A2DA4BF5A
:1007A0005B443A3B491E02F80139F4D50E99002901
:1007B00040F1AC80421E0E92A8E00099DFF8E826D6
:1007C00047F29750414391FBF2F20092DDE92C454C
:1007D000C2F10702002A25F0004504DD2046294623
:1007E00000F03EFB0BE052420020DFF8C01600F0A4
:1007F00037FB02460B462046294600F0A8FD04467A
:100800000D46B8F1660F06BF009F0A3706270E98FF
:100810003F18142FC8BF142730208DF884000DF125
:100820008506002F34DD2046294600F099FD01465B
:100830000A4606F1080304200A26B2FBF6F606EB88
:10084000860EA2EB4E02303203F8012C0A22B6FBD0
:10085000F2F202EB820EA6EB4E063036401E03F893
:10086000026DE9D1083F002F03F10806D9DD0846E3
:1008700000F07DFD02460B462046294600F05EFD55
:100880000022DFF82C3600F079FD04460D46CAE759
:100890000DF18500361A0DF1850404E00098401E24
:1008A000761E0090641C20783028F7D0B8F1660FCF
:1008B00002D10098401C04E0B8F1650F0CBF012084
:1008C00000200E9940188642B8BF701E00281DD423
:1008D000B04204DA215C3429C8BF392100DC302160
:1008E0000246631E9D1800E0401E15F80169521E65
:1008F0008E42F9D0392902D1A15C491CA154002AA9
:1009000004D50099491C1C46401C00910646009DD8
:100910000E9F30B2002802DC01260FF210644BF06B
:100920002000662808BF6D1C15D067280FFA85F8CF
:1009300041D118F1040F44DBB84542DA9DF840007C
:100940006D1C010703D430B2B842D8BF074628B2A5
:100950003F1A48BF00270FFA85F8B8F1000F00F3DF
:10096000AF800898411C0891302205990A54002F45
:1009700003DC9DF84000010705D50898411C08914B
:100980002E2205990A5417EB080FB8BF7D422DB2ED
:100990006842ED1932B20B909542B8BF2E46059BC6
:1009A000089836B2099632462146184400F076FB84
:1009B000AD1B0C95CCE0BBF1610F15D14FF0700B66
:1009C00017E030B2B84204DA9DF840100A0758BF69
:1009D00007467F1E48BF0027BBF1670F14BF4FF0CB
:1009E000450B4FF0650B04E0BBF1410F08BF4FF022
:1009F000500B0898411C0891002F059914F8012B01
:100A00000A5403DC9DF84000010719D50898411CE1
:100A100008912E2205990A54002F11DD761E30B25E
:100A20008742B8BF3E460598089B32B2214618441B
:100A300000F034FB089836B23018BF1B08900B97B3
:100A4000059808990844B8F1000F80F800B003D465
:100A50002B224270821C04E02D2145464170821CED
:100A60006D4200212CAB28460AE004460A2094FB84
:100A7000F0F000EB8005A4EB450403F8014B491CA2
:100A800000B20028F1DC012906DC4BF020006528CB
:100A900004BF302002F8010B00292CAB08D1302014
:100AA00002F8010B06E0491E585C303002F8010BD9
:100AB0000029F8DC059908980844121A099247E0C1
:100AC00030B229B288421BDA0598089B32B221461F
:100AD000184400F0E3FA089936B271180891A8EBAF
:100AE0000600002F0B9003DC9DF84000020705D59F
:100AF000059A2E2050540999491C09910C9727E01A
:100B00000598089B2AB22146184400F0C7FA0898B5
:100B1000761B4044002F089003DC9DF840100A0724
:100B200004D5411C08912E2205990A5430B28742FF
:100B3000B8BF3E460598089B32B204EB0801184442
:100B400000F0ACFA089836B23018BE1B08900B962D
:100B50009DF8400000F01400102840F0C280079A71
:100B600008980B99821809988A1882180C980F997E
:100B70008018884280F2B580081A0A90B1E09DF88A
:100B80004200622808D068280ED06A2814D06C2849
:100B90001FD0712810D01CE0D9F8001051F8040BB8
:100BA000C9F80010C0B21AE0D9F8001051F8040BCF
:100BB000C9F8001080B212E0D9F80000C21D22F07E
:100BC0000702C9F80020D2E900010832C9F8002064
:100BD00006E0D9F8001051F8040BC9F80010002104
:100BE000CDE902019DF8400001075AD5DDE9022355
:100BF000002B08BF002A54D04BF02000782850D199
:100C0000079812A930220A54401C431C079301F88C
:100C100000B046E09DF84200622808D068280ED057
:100C20006A2814D06C281FD0712810D01CE0D9F885
:100C3000001051F8040BC9F8001040B21AE0D9F8BE
:100C4000001051F8040BC9F8001000B212E0D9F8F6
:100C50000000C21D22F00702C9F80020D2E90001FD
:100C60000832C9F8002006E0D9F8001051F8040B4A
:100C7000C9F80010C117CDE90201002902D5079873
:100C80002D210AE0BDF84000810702D507982B21ED
:100C900003E0C00705D50798202112AA1154401C73
:100CA000079012A8079901440591594602A800F03F
:100CB0004DF816E001200790D9F8000050F8041B09
:100CC000C9F800008DF848100BE001212522BBF186
:100CD000000F07918DF8482003D0022207928DF86B
:100CE00049B00F9D07990A986D1A08992D1A0B980B
:100CF0006D1A09992D1A0C986D1A9DF840102D1A2D
:100D000048073FF5DFAA2021002D8DF800107FF75E
:100D1000D9AA309E2C46FFF7C9BA4FF0FF3031B048
:100D2000BDE8F08FCBCCCC0C686A6C747A4C0000B8
:100D30007072696E74665F733A2062616420257315
:100D400020617267756D656E740000002DE9FC47C7
:100D500007468A463C6950466F2808BF082505D0DB
:100D6000FFF78EF9782814BF0A251025D7E900016E
:100D70003C2680468946BAF1640F18BFBAF1690F64
:100D800005D1002903D5D8F1000869EB4909B9F16B
:100D9000000F08BFB8F1000F0CD1386B50B9082D07
:100DA0003AD197F83800010736D530223B2684F82F
:100DB0003B2031E08DF800A0404649462A46EB171B
:100DC00000F0E6FA3032D0B2761E3A2801960EDAFA
:100DD000A255404649462A46EB1700F0D9FA80460C
:100DE0005FEA010908BFB8F1000F05D108E09DF8DE
:100DF00000001218513AEBE7F868A1198842DBD3DA
:100E0000082D09D197F83800010705D5A05D3028D5
:100E100002D0761E3020A055C6F13C03BB61A1195B
:100E2000F960386B834208DAC31A3B624FF6EF7001
:100E3000398F01403987BDE8F38700280ED597F830
:100E4000380000F01400102808D17A6B7969386AEC
:100E5000521A121AD21A002AC8BF3A62BDE8F387A2
:100E60002DE9D04306460F4614464FF00008DFF840
:100E7000449012E0E00707D542464B4630463946DB
:100E800000F07CFA06460F464046494642464B462D
:100E900000F074FA641080468946002CEAD130468E
:100EA0003946BDE8D0830000A08601000000F03F75
:100EB00084D7974100002440F8B505460E461746F2
:100EC0001C4600205CB117F8011BB068A847B06051
:100ED00030B1F06A401CF0620020641EF3D1F2BD14
:100EE0004FF0FF30F2BD00007072696E74665F7380
:100EF0003A20256E20646973616C6C6F77656400BD
:100F00007072696E74663A2062616420256E206199
:100F10007267756D656E7400000000006E616E0092
:100F20004E414E00696E6600494E46003000F0B4F6
:100F30000246106895681318506803EB5004C00708
:100F400048BF4D44A3422DD013F8016B16F00300A7
:100F500004BF13F8010BC01C31090F2907D113F886
:100F6000011B0F3103E013F8017B05F8017B401EE4
:100F7000F9D10029E6D013F8010BC6F38106032E40
:100F800008BF13F8016B00EB0620404228440026FE
:100F9000B71E8F421EBF10F8017B05F8017B761C3F
:100FA000F6D1CFE7F0BC02F10C007047C9B202786D
:100FB0008A421AB11CBF10F8012FF9E718BF0020B0
:100FC00070470268531C03601170704780B500B908
:100FD00006A005490B681BB122220021984701E0B9
:100FE00000F0EEFA222002BD48600A28636F6E739B
:100FF000747261696E742068616E646C65723A2007
:10100000626164206D6573736167650000F10103BF
:10101000810704D010F8011B820781B1FAD1026860
:10102000A2F10131914311F0803104BF50F8042F37
:10103000F6E709BAB1FA81F100EBD100401CC01A01
:1010400070470000C9B2830706D0521E22D310F8A1
:10105000013B9942F7D11FE0083A13D302F1040291
:1010600041EA012141EA014150F8043B121F21BF2E
:101070004B40A3F1013C2CEA030C1CF0803FF3D061
:10108000C9B2001F083210F8013B521E28BF91EA76
:10109000030FF8D818BF0120401E704762B38B07BA
:1010A00008D0521E11F8013B00F8013B00F02480EB
:1010B0008B07F6D1830740F0208000BF103A07D39A
:1010C00030B4B1E83810103AA0E83810F9D230BC8A
:1010D000530724BFB1E80810A0E8081044BF51F836
:1010E000043B40F8043BD20724BF31F8022B20F820
:1010F000022B44BF0B7803707047121F17D35B009D
:1011000009D151F8043B20F8023B1B0C121F20F8B8
:10111000023BF6D20BE051F8043B00F8013B1B0AFE
:1011200020F8023B1B0C121F00F8013BF3D238BF22
:10113000121D521E24BF11F8013B00F8013BF8D8E4
:101140007047000010B5144600F002F8226010BD90
:10115000C1F30A5343B14A0012F5001F28D2A3F28B
:10116000FE32A1EB0251704750EA410C20D001F051
:10117000004C31EA0C01B1FA81F204BFB0FA80F3FD
:10118000D2180B3AB2F120032CBF00FA03F19140C0
:1011900041EA0C013EBFC2F1200C20FA0CF31943C6
:1011A0009040524240F2FD33D21A01EB0351704796
:1011B0000022704741EA030C50EA4C0C52EA0C0C36
:1011C0004FF4001C09D307D01CEB410F9CBF1CEB54
:1011D000430F8B4208BF824270471CEB430FFBD882
:1011E000994208BF9042704741EA030C50EA4C0C08
:1011F00052EA0C0C4FF4001C09D307D01CEB410F32
:101200009CBF1CEB430F994208BF904270471CEBF8
:10121000410FFBD88B4208BF8242704700B541ECBA
:10122000100B104600F004F851EC100B00BD00BF8D
:10123000020030EE101B40F2FF7C37D41CEA115341
:1012400013D063456BD09B18634504D201EB025168
:1012500020EE101B704701F0004141EA0C510020C4
:1012600041EC100BAFF30080704710EE100B50EA0A
:10127000410054D0B2F57F7F08D202EB5C01090532
:10128000002041EC110B20EE010B70474FF0FE41A6
:10129000002341EC113B20EE010BB2F57E7230EEE3
:1012A000101B4FEA410342EB5353CDE752421CEA75
:1012B000115316D0634532D09A4204D2A1EB0251A9
:1012C00020EE101B70475B1ED21AA1EB035120EEDB
:1012D000101B372A0CD3002001F0004141EC100B09
:1012E000C0E710EE100B50EA410018D0372AF2D2B6
:1012F000C2EB5C021105002041EC110BF1EE100A6B
:1013000020F01F0121F4F851E1EE101A20EE010B3C
:10131000F1EE101AE1EE100A11F0080FA2D1704799
:1013200041EC100BBDEEC00B10EE100A704700EE42
:10133000100AB8EEC00B51EC100B704741EC100BCB
:1013400043EC112B30EE410B51EC100B704741EC8C
:10135000100B43EC112B80EE010B51EC100B70477E
:1013600041EC100BBCEEC00B10EE100A704700EE03
:10137000100AB8EE400B51EC100B704741EC100B0B
:1013800043EC112B20EE010B51EC100B70470000C9
:10139000BBBBE1B1B2F5803F80F07E80022A1ED94E
:1013A0008C46B1FBF2F102FB11C31B0443EA10436C
:1013B000B3FBF2FC02FB1C3380B240EA0343B3FBF5
:1013C000F2F002FB103240EA0C4000237047022A80
:1013D00005D98446B0FBF2F002FB10C270474AB157
:1013E00005D100F0010249085FEA30007047002291
:1013F0000023704700F0E8B80B0002000021002035
:101400007047904271EB030CF6D3B3F5803F2FD2B7
:10141000F0B5B3FA83F7B1FA81F4A7F10F0E3D1BD3
:101420005340CEF1200602FA0EF2F3415340B5F1DB
:101430000F0746D80F3C2C444140C4F12006A04081
:10144000F1414140B1FBF3F603FB1611A2FB064547
:10145000001BA94102D2761E8018594180EA010280
:1014600021FA0EF362FA0EF200215A403046F0BD26
:1014700030B4B1FBF3FC03FB1C11A2FB0C45001BB9
:10148000A94103D2ACF1010C8018594130BC02468D
:101490000B46604600217047B2F1807F65D3F0B5FE
:1014A000B2FA82F7B1FA81F4C7F10F063D1B22FAB6
:1014B00006F307F1110EF24120355A40B5F10F073E
:1014C000B8D94140C4F12006A040F1414140B1FBF0
:1014D000F3FC03FB1C11A2FB0C45001BA94103D22A
:1014E000BCF1010C801859410F2F12D30F3FC903D3
:1014F00041EA5041B1FBF3F603FB1611A2FB06458E
:10150000D4EBC030A94102D2761E8018594146EA78
:10151000CC3C07B34140C7F12006B840F1414140FF
:10152000B1FBF3F603FB1611A2FB0645001BA94114
:1015300002D2761E8018594180EA010221FA0EF388
:10154000C7F1200462FA0EF20CFA07F05A402CFAA6
:1015500004F13043F0BD80EA010221FA0EF30021CC
:1015600062FA0EF260465A40F0BD8C46B1FBF2F1D1
:1015700002FB11C31B0243EA1063B3FBF2FC02FB44
:101580001C331B024CEA002043EA1063B3FBF2FC5D
:1015900002FB1C331B024CEA002043EA1063B3FB3E
:1015A000F2FC02FB1C331B024CEA002043EA1063EE
:1015B000B3FBF2FC02FB1C324CEA00200023704714
:1015C000012000F003B800007047000080B5AFF3C1
:1015D0000080024A11001820ABBEFBE72600020083
:1015E000DFF8C4110868C0F34000002801D00220D1
:1015F00002E0086810F001007047DFF8B0010068F1
:1016000010F0010070470000C21E022A01D3012021
:1016100002E0C01E0860002070471CB5FF24694628
:10162000FFF7F2FFC0B2002802D02000C0B207E0EE
:10163000DFF8FC01009950F8210010F00100C0B261
:1016400016BD0000002801D0032801D3012002E0CC
:10165000401E0860002070471CB5FF246946FFF754
:10166000F1FFC0B2002802D02000C0B208E0DFF8CD
:10167000C401009909010844C06810F00100C0B21B
:1016800016BD0000DFF8BC010068800810F0010002
:10169000704738B504002000C0B2082811D3DFF825
:1016A00098511822DFF89411280000F00DFC00205A
:1016B000E87540F65B00DFF888110860002000F054
:1016C0003BFCDFF8CC112000C0B251F82000C0F381
:1016D0000020002805D0E4B251F8240010F00F00DB
:1016E00000E0FF2032BD38B504002000C0B2082859
:1016F00011D3DFF844511822DFF84011280000F020
:10170000E3FB0020E8754FF40960DFF8341108604E
:10171000002000F011FCDFF87801E4B250F824005A
:10172000C0F30110C0B232BDDFF868211368C3F303
:10173000072303601068C0F3C40008607047DFF837
:1017400058211368C3F3072303601068C0F3C40073
:101750000860704738B50400072C11D3DFF8D85063
:101760001822DFF8C411280000F0AEFB0020E87555
:101770004FF4CE70DFF8C8100860002000F0DCFBEA
:10178000DFF8A00150F8240010F00700010009B2B2
:10179000042907D1DFF8880150F8240010F01F0059
:1017A00050F4807000B232BD24152640401526400A
:1017B000DFF8B01209688A03920B0260090E11F07B
:1017C0000101C171DFF8A01209680A00D204D20C2D
:1017D00082800A00120C02F0FF020281090C01F063
:1017E000FF014181DFF84411096811F00F02027313
:1017F0000A00C2F3031242730A00120AD204D20C86
:10180000C281090F11F003010174DFF86413096844
:101810000A00120A12F0070282710A00120CD205A5
:10182000D20D4282890F11F001010175704700004D
:101830004016264000192640C45F0A282848281070
:1018400014600A28100027401CB50C006946FFF7F9
:10185000DBFE0100C9B2002901D0C0B217E0DFF8F9
:10186000B404009950F8210010F07F012160C0F30A
:1018700004216160C0F30441A1600100090F11F06F
:1018800003016173C00E10F001002073002016BD2B
:101890004012264008002040080420401CB50C00DF
:1018A0006946FFF7CFFE0100C9B2002901D0C0B2DE
:1018B00035E0DFF8101500980001085800F0FF022D
:1018C0002260C0F304226260C0F30442A260000FF1
:1018D00010F00300207300980001084442681000D3
:1018E000C00F6073C2F30270002801D0012000E035
:1018F0000020A07322F07F4222610098000108447A
:1019000080680100C90F21750100090E11F0010165
:101910006175A075000C10F00700E075002016BD81
:101920000001264000122640EC48281038152640B9
:1019300080B50100DFF868051822FFF7BFFB012022
:10194000DFF860150870002002BDDFF85C1509683B
:10195000C90F002908D0DFF84C150978002907D1F4
:101960000021016003207047002101600320FAE795
:10197000DFF82C15096801600020F4E710B50400B9
:10198000FFF72EFE002803D10020206003200DE089
:10199000DFF810050078002805D0DFF8040580681E
:1019A0002060002002E000202060032010BD000025
:1019B000DFF8F0140978002905D0DFF8E41449684D
:1019C0000160002002E00021016003207047DFF881
:1019D000DC140968C90F002908D0DFF8C814097899
:1019E000002907D100210160032070470021016018
:1019F0000320FAE7DFF8A814C96801600020F4E7C3
:101A0000DFF8AC140968C90F002908D0DFF8941476
:101A10000978002907D100210160032070470021C7
:101A200001600320FAE7DFF87814096901600020FB
:101A3000F4E710B50400FFF725FE002803D10020CD
:101A4000206003200DE0DFF85C040078002805D05A
:101A5000DFF84C0440692060002002E00020206094
:101A6000032010BD301526403415264010B50C005B
:101A7000C0B2FFF76FFE00280ED0012810D0022858
:101A800012D0B0F5887F13D040F21111884213D0E4
:101A9000B0F58A7F14D017E02000FFF756FF16E05C
:101AA0002000FFF785FF12E02000FFF767FF0EE040
:101AB0002000FFF78CFF0AE02000FFF7BAFF06E0E6
:101AC0002000FFF79DFF02E000202060032010BDF2
:101AD00080B501000020FFF7C9FF02BD80B50322D9
:101AE000D2B2824203D200200860012003E0401CF1
:101AF000C0B2FFF7BBFF02BD18B587B0040068464F
:101B0000FFF7E6FF0100C9B2002903D000212160E0
:101B1000C0B22BE001A8FFF74BFE9DF8140002288D
:101B200003D100982060002020E0DFF888030068DF
:101B3000C00F002808D0FFF760FDC0B2002807D111
:101B400000202060032011E00098206000200DE0BC
:101B5000009901984143BDF80800B1FBF0F09DF8F1
:101B60000B10491CB0FBF1F02060002008B010BD44
:101B70003C152640F0B58BB005000C0069462800E6
:101B8000C0B2FFF7ABFF0100C9B2002903D00021AA
:101B90002160C0B2BCE02800C0B202284CD307A923
:101BA0002800C0B2401CFFF74FFEC0B2002811D081
:101BB000DFF804631822DFF80413300000F084F922
:101BC0000020F07540F66310DFF8F4120860002082
:101BD00000F0B2F94F482900C9B200EB810050F87B
:101BE000080CC00F002807D09DF82900022807D153
:101BF0000098206000208BE000982060002087E0A3
:101C0000EDB26D1C2800FFF708FD0100C9B20029E4
:101C100002D0C0B2FF2803D100202060032077E06B
:101C20000099079841430898B1FBF0F00999B0FB7F
:101C3000F1F0206000206BE001A92800C0B2401C38
:101C4000FFF72CFEC0B2002811D0DFF86C6218221A
:101C5000DFF86812300000F037F90020F07540F628
:101C60007F10DFF85C120860002000F065F955482D
:101C70002900C9B209014058C00F002807D09DF8BB
:101C80001000022807D100982060002040E0009852
:101C9000206000203CE0EDB26D1C2800FFF7DCFC6A
:101CA0000100C9B2002902D0C0B2FF2803D1002030
:101CB000206003202CE09DF8110001281DD1009A1E
:101CC0000023019E00273F0647EA1627360605989F
:101CD000002136184F41A6FB020106FB031107FB4A
:101CE0000211029A039BA3FB0223FFF751FB000E94
:101CF00040EA0120090E206009E000990198414363
:101D00000298B1FBF0F00399B0FBF1F020600020E5
:101D10000BB0F0BD0016264010B50323421E040090
:101D2000E4B2002C03D10800FFF7E6FE0CE014003B
:101D3000DBB2E4B2A34204D31000C0B2FFF71AFF33
:101D400002E0C0B2FFF792FE10BD38B505000C00EE
:101D50002800C0B2FFF79DFC0100C9B2FF2904D1E1
:101D60002000FFF7F2FDC0B21BE06946C0B2FFF7EA
:101D7000D3FF0100C9B2002903D000212160C0B205
:101D80000FE02800C0B2FFF7AEFCC0B2002805D0BB
:101D900002280BD006D303280CD00FE00098206057
:101DA000002032BD009840082060F9E700988008C4
:101DB0002060F5E70098C0082060F1E7002020606F
:101DC0000320EEE7001926401FB5040002A90120F8
:101DD000FFF7BBFF0100C9B2002903D00021216039
:101DE000C0B21AE0694601A8FFF79EFC01980021E5
:101DF000421C71F1FF335B0143EAD2635201009848
:101E0000002112184B4102980021490141EAD0619A
:101E10004001FFF7BDFA2060002004B010BD1FB5DF
:101E2000040002A90120FFF790FF0100C9B20029B8
:101E300003D000212160C0B21AE0694601A8FFF773
:101E40007EFC01980021421C71F1FF335B0143EAE3
:101E5000D26352010098002112184B4102980021D0
:101E6000490141EAD0614001FFF792FA2060002069
:101E700004B010BD80B5DFF84C100A68C2F303222D
:101E80000E2A07D00968C1F303210D2905D1FFF7F8
:101E9000C6FF02BDFFF798FFFBE70120F9E700004E
:101EA000AC5F0A284F600A281815264008152640FE
:101EB0000C15264030152640C45F0A28EC4828102F
:101EC00014600A280000204001B58B071AD183074F
:101ED00024D1121F21D351F8043BA3F1013C2CEA79
:101EE000030C1CF0803C04BF40F8043BF1E79CFA73
:101EF0008CFCBCFA8CF1C1F118018B40CB4040F84E
:101F0000043B13E0042A09D311F8013B521E00F8E8
:101F1000013B5BB18B07F7D1D9E7121D5AB111F81C
:101F2000013B521E00F8013B03B1F8D111001CBF68
:101F3000002200F059F801BD01BEFEE780B5234A3A
:101F400023490B6893423ED00A60224A12684A62D3
:101F5000214A8A6202684A6042688A608268CA606E
:101F6000C2680A6102694A6142698A618269CA611A
:101F7000C2690A62F1EE102A12F0900F23D0174ABC
:101F80008A62026ACA62426A0A63826A4A63C26AEF
:101F90008A63026BCA63426B0A64826B4A64C26BD7
:101FA0008A64026CCA64426C0A65826C4A65C26CBF
:101FB0008A65026DCA65426D0A66826D4A66C26DA7
:101FC0008A66006EC86600F03EF801BDFAF9F8F7BF
:101FD0003C5F0A2828ED00E0A4A3A2A1ABAAA9A80F
:101FE00062F30F2262F31F42401810F0030308D07F
:101FF000C91A1FD3DB0748BF00F8012D28BF20F8FE
:10200000022D130030B414461546103928BF20E9BC
:102010003C00FAD8490728BF20E90C0048BF40F827
:10202000042D890028BF20F8022D48BF00F8012D9B
:1020300030BC7047C91818BF00F8012DCB0728BF66
:1020400000F8012D7047FEE770B504000D00DFF8C1
:102050009C682A0092B2120AD2B22100C9B23000A2
:1020600000F0B4FE2A00D2B2F021300000F0AEFE43
:1020700070BD2DE9F04704000D00012600275FF038
:1020800000085FF00A09484640B2002836D04846AA
:1020900040B2052190FBF1F201FB1200002810D1A3
:1020A000DFF848A82A0092B2120AD2B22100C9B2BF
:1020B000504600F08BFE2A00D2B2F021504600F0CC
:1020C00085FEDFF828A82100C9B2504600F0A6FE20
:1020D0000700F021504600F0A1FE8046280080B2A3
:1020E0003900C9B24246D2B252EA0122904202D12C
:1020F0000020060002E0B9F10109C4E7300040B257
:10210000BDE8F08770B50400DFF8E0672100C9B2D0
:10211000300000F083FE0500F021300000F07EFE6C
:10212000EDB2C0B250EA052080B270BDF8B504002F
:10213000002500260127DFF8B4075C210172E16861
:10214000C16021680160616841600020FFF7DAFF2B
:102150000600300041F2243180B288420BD03000BA
:1021600041F2113180B2884205D0300041F2133182
:1021700080B2884202D10020070004E06D1C2800D4
:10218000C0B21528E1DB3800C0B2F2BD2DE9F14F35
:102190008AB05FF0000A00240020ADF8200000257E
:1021A0000020ADF806000020ADF81E000020ADF8BC
:1021B0001C0000265FF0000800270A98C088ADF8D0
:1021C00008000A984089ADF80A000A98C089ADF85D
:1021D0000C000A98408AADF80E000A98C08AADF843
:1021E00010000A98408BADF812000A98C08BADF829
:1021F00014000A98408CADF816000A98C08CADF80F
:102200001A004BF6EF61FE20FFF71EFF03210C20A2
:10221000FFF71AFF0020FFF775FF070041F224398E
:102220003800494680B288420BD0380041F2113163
:1022300080B2884205D0380041F2133180B2884222
:1022400000D109E018F101084046C0B2142802DBB1
:102250000120060000E0DDE73000C0B2002840F0B9
:102260000C83BDF81000792807DABDF81000800053
:10227000ADF806005AF0020A15E0BDF81000F1288A
:1022800007DABDF810004000ADF806005AF0010A68
:1022900009E0BDF8100040F2E111884203DABDF810
:1022A0001000ADF80600BDF80E00BD2806DABDF836
:1022B0000E00800005005AF0080A15E0BDF80E0077
:1022C00040F27911884206DABDF80E0040000500A0
:1022D0005AF0040A08E0BDF80E0040F2F1218842ED
:1022E00002DABDF80E000500DFF804B640F24E3108
:1022F000280080B2091ACBF800103800494680B295
:1023000088427AD148F288310720FFF7B2FE80195F
:102310000600DFF8E015BDF81020921C2B009BB2E0
:10232000DBF80000C3185A43121D91FBF2F00400C1
:10233000200080B240F2F511884202DB4FF4FA70BF
:1023400004002000BDF80C1080B2884201D2ADF824
:102350000C40DFF8A415DFF89C05BDF80C2090FBBD
:10236000F2F2121F2B009BB2DBF80000C31892FBA5
:10237000F3F2BDF81000121A0A6047F621600A68ED
:10238000824202DA0A68022A0EDA0A68022A02DAAD
:102390000220086008E00A68824203DB47F62060FA
:1023A000086001E008680860DFF84805BDF80C2007
:1023B00090FBF2F2121F0968BDF81000411892FB61
:1023C000F1F1280080B2091ACBF80010DBF8000008
:1023D0003D2803DA3D20CBF8000081E0DBF8000067
:1023E000B0F5806F04DB40F2FF30CBF8000077E0FF
:1023F000DBF80000CBF8000072E0DFF8F814BDF85D
:102400001020121D2B009BB2DBF80000C3185A43AA
:10241000121D91FBF2F00400200080B240F2F51191
:10242000884202DB4FF4FA7004002000BDF80C1063
:1024300080B2884201D2ADF80C40DFF8BC14DFF85E
:10244000B404BDF80C2090FBF2F2121F2B009BB2DB
:10245000DBF80000C31892FBF3F2BDF81000121A6B
:102460000A6040F6B9300A68824202DA0A68042A31
:102470000EDA0A68042A02DA0420086008E00A6812
:10248000824203DB40F6B830086001E0086808606B
:10249000DFF86004BDF80C2090FBF2F2121F09680F
:1024A000BDF81000411892FBF1F1280080B2091A22
:1024B000CBF80010DBF800002B2803DA2B20CBF838
:1024C00000000DE0DBF80000B0F5806F04DB40F2A7
:1024D000FF30CBF8000003E0DBF80000CBF8000091
:1024E000DFF814040168BDF810004118891EBDF81A
:1024F0000A00814208DADFF800040168BDF8100024
:102500004118881EADF80A00280080B2D0F53C7052
:10251000022190FBF1F0BDF91210020012B2D1427B
:1025200003DA010009B2494209E00100BDF91220B5
:1025300009B2914201DA010001E0BDF91210ADF8D3
:102540001210401CBDF91210411AADF81E10BDF852
:102550000610D1F5F071022291FBF2F1BDF91420C1
:102560000B001BB2DA4203DA080000B2404209E075
:102570000800BDF9142000B2904201DA080001E021
:10258000BDF91400ADF81400091DADF82010BDF917
:102590002010BDF914004118ADF81C1001211B20BA
:1025A000FFF767FD80198DF804009DF80400009086
:1025B000BDF81E100120FFF75CFD009940188DF852
:1025C00004009DF804000090BDF81C100220FFF7E5
:1025D00050FD009940188DF804009DF8040000900B
:1025E000BDF806100320FFF744FD009940188DF850
:1025F00004009DF804000090290089B20420FFF730
:1026000038FD009940188DF804009DF804000090F2
:10261000DBF80000010089B20520FFF72AFD0099D0
:1026200040188DF804009DF804B0B348006801001C
:1026300089B20620FFF71DFD10EB0B0B8DF804B0DF
:102640009DF804B04FF4B2710A20FFF712FD10EBB1
:102650000B0B8DF804B09DF804B040F2BB110820BC
:10266000FFF707FD10EB0B0B8DF804B09DF804B0DD
:1026700040F2D9110920FFF7FCFC10EB0B0BBDF861
:102680000800002807D1BDF80A100B20FFF7F1FC65
:1026900010EB0B0083465AF44C7189B20D20FFF702
:1026A000E8FC10EB0B008DF804009DF80460272176
:1026B0003120FFF7DEFC86198DF804609DF8046078
:1026C0001A213220FFF7D5FC86198DF804609DF899
:1026D000046005213320FFF7CCFC8619BDF81610E5
:1026E0003520FFF7C6FC80198DF80400380080B251
:1026F000484529D1504680B2042801DB012100E081
:1027000000219DF80460C9B2090189B27220FFF767
:10271000B0FC86198DF804609DF8049040F2011118
:102720000F20FFF7A6FC10EB090981214720FFF7D6
:10273000A0FC83461BEB090BEC214820FFF799FC1A
:10274000060016EB0B0615E09DF8049011210F20F2
:10275000FFF78FFC10EB090981214720FFF789FC67
:1027600083461BEB090BE7214820FFF782FC06009C
:1027700016EB0B064FF462710720FFF77AFC801905
:102780008DF804009DF804B040F203311C20FFF7DF
:1027900070FC10EB0B0B03212C20FFF76AFC814629
:1027A00019EB0B09BDF80800002807D10021AF2064
:1027B000FFF75FFC060016EB09064DE0BDF80810B8
:1027C000A520FFF756FC060016EB09060221A620FD
:1027D000FFF74FFC83461BEB060B0221A820FFF7F7
:1027E00048FC10EB0B008DF80400BDF80E10BDF88E
:1027F00010004143042091FBF0F0B0F5803F08DA6F
:10280000BDF80E10BDF810004143042091FBF0F11B
:1028100001E04FF6FF719DF8046089B2B020FFF728
:1028200028FC86198DF804609DF804901421AE20D0
:10283000FFF71FFC10EB090940F20111AF20FFF771
:1028400018FC83461BEB090BBDF80A10AD20FFF7FF
:1028500010FC060016EB0B06BDF8080027490860BF
:10286000BDF80A0026490860BDF810002549086037
:102870004DF6AD61FE20FFF7E7FB3000C0B20BB0B4
:10288000BDE8F08F70B5040001251E491A4A13688F
:102890000868C3189B1E200080B2834206DA1268C3
:1028A00008688218921E1648026003E0200080B279
:1028B000134908604BF6EF61FE20FFF7C5FB0F4898
:1028C0000068002801D0AD2000E00B200C49096809
:1028D00089B2C0B2FFF7CDFB06004DF6AD61FE2018
:1028E000FFF7B2FB3000C0B270BD0000F05F0A28F5
:1028F00038600A28C0FC9B0134600A283C600A2822
:1029000040600A2844600A281CB50400002C01D04D
:10291000012000E000204122DFF8A414C0B200F042
:1029200070FCDFF8A00401212278D21010EBC21253
:10293000237813F0070311FA03F313602279D210FE
:1029400010EBC210227912F0070211FA02F20260B3
:10295000E06800900098421E00920028FAD1DFF84B
:1029600068242079C01012EBC010237913F00703FC
:1029700011FA03F30360E06800900098431E00938F
:102980000028FAD12078C01012EBC012207810F085
:10299000070081401160E06800900098411E00919E
:1029A0000028FAD113BD1CB50400002C01D0012071
:1029B00000E000205522DFF80814C0B200F021FC2E
:1029C000DFF8040401212279D21010EBC21223791E
:1029D00013F0070311FA03F313602278D21010EBFF
:1029E000C210227812F0070211FA02F20260E068C7
:1029F00000900098421E00920028FAD1DFF8C4230C
:102A00002078C01012EBC010237813F0070311FADE
:102A100003F30360E06800900098431E00930028D1
:102A2000FAD12079C01012EBC012207910F0070003
:102A300081401160E06800900098411E00910028DC
:102A4000FAD113BD38B504000D00002C01D00120CF
:102A500000E000206A22DFF86813C0B200F0D1FB6A
:102A6000DFF8641301222078C01011EBC010237826
:102A700013F0070312FA03F30360EDB2002D0CD03C
:102A80002079C010DFF83C3313EBC013207910F02D
:102A9000070012FA00F0186009E02079C01011EB6D
:102AA000C010237913F0070312FA03F30360E06800
:102AB00000900098431E00930028FAD1DFF80433F9
:102AC0002078C01013EBC010257815F0070512FA16
:102AD00005F50560E06800900098451E0095002807
:102AE000FAD12078C01011EBC011207810F0070047
:102AF00012FA00F008602079C01013EBC01320799F
:102B000010F0070082401A6031BD2DE9FC4104003D
:102B1000002C01D0012000E000208622DFF8A01266
:102B2000C0B200F06EFB0025DFF8EC6201272078D0
:102B3000C01016EBC010217811F0070117FA01F14F
:102B40000160DFF880822079C01018EBC010217975
:102B500011F0070117FA01F10160002200216068FD
:102B6000C0B200F003FCE06800900098411E0091A4
:102B70000028FAD12078C01018EBC018207810F087
:102B8000070017FA00F0C8F80000E068009000980D
:102B9000411E00910028FAD16068C0B200F0D5FB58
:102BA000002800D001252078C01016EBC016207830
:102BB00010F0070087403760032201216068C0B22F
:102BC00000F0D4FBE06800900098411E00910028BE
:102BD000FAD12800C0B2BDE8F6817CB504000D0032
:102BE000002C01D0012000E00020A822DFF8D01145
:102BF000C0B200F006FB80210800C0B200284ED011
:102C00002800C0B208420CD00120227912F007023D
:102C100090402279D210DFF8AC3113EBC213186068
:102C20000BE00120227912F0070290402279D210A5
:102C3000DFF8E43113EBC2131860C9B24908E06849
:102C4000400800900098421E00920028FAD101220C
:102C5000207810F0070012FA00F02378DB10DFF87C
:102C6000646116EBC3163060E06800900098431E64
:102C700000930028FAD1207810F0070082402078D5
:102C8000C010DFF8943113EBC0131A60E0684008FD
:102C900000900098421E00920028FAD1ACE7200074
:102CA000FFF733FF012801D1002000E00120C0B26E
:102CB00076BD2DE9FC4704000D00002C01D0012059
:102CC00000E00020C222DFF8F810C0B200F099FA4C
:102CD00000260827DFF8F0805FF001092078C01097
:102CE00018EBC010217811F0070119FA01F1016009
:102CF000E06800900098411E00910028FAD1DFF8AA
:102D0000C4A02079C0101AEBC010217911F007017E
:102D100019FA01F10160002200216068C0B200F0E0
:102D200025FB27E02078C01018EBC010217811F0A7
:102D3000070119FA01F10160E06800900098411E56
:102D400000910028FAD12078C0101AEBC010217829
:102D500011F0070119FA01F10160E0680090009894
:102D6000411E00910028FAD16068C0B200F0EDFA6F
:102D700050EA46063800471EC0B20028D2D120785B
:102D8000C01018EBC018207810F0070019FA00F9ED
:102D9000C8F80090032201216068C0B200F0E6FA92
:102DA000E06800900098411E00910028FAD12900A7
:102DB000C9B22000FFF746FE3000C0B2BDE8F6877A
:102DC000744A2810080031400400314070B50400F6
:102DD0000D001600002C01D0012000E0002040F280
:102DE0008D224749C0B200F00CFA2000FFF78CFD9D
:102DF000217A4900C9B22000FFF7EFFE2900C9B2CD
:102E00002000FFF7EAFE3100C9B22000FFF7E5FE1F
:102E10002000FFF7C8FD70BD0400314038B5040044
:102E20000D00002C01D0012000E0002040F29F2284
:102E30003349C0B200F0E5F900202000FFF764FD3F
:102E4000217A4900C9B22000FFF7C7FE2900C9B2A4
:102E50002000FFF7C2FE2000FFF7A5FD2000FFF7CE
:102E600053FD217A490051F00101C9B22000FFF75A
:102E7000B4FE01212000FFF71CFF05002000FFF732
:102E800092FD2800C0B232BD2DE9F8430400884607
:102E90001700002C01D0012000E00020089D1E003A
:102EA000DFF85C9040F2BA224946C0B200F0A9F9BE
:102EB00030002900C0B2C9B2884201D0012000E030
:102EC000002040F2BB224946C0B200F09AF930001F
:102ED000C0B220602800C0B2606084F80880E7605B
:102EE0000323012201213000C0B200F066FA03235F
:102EF000012201212800C0B200F05FFABDE8F18391
:102F0000744A281082B00020019000200090002018
:102F1000019009E00098401C00900098B0F5005F17
:102F2000F8D30198401C01900198B0F5805F02D25F
:102F300000200090F1E702B0704780B5010000204A
:102F400000F0B4FA01BD2DE9F043ADF5137D0700A3
:102F5000884616001C000020ADF802000020ADF8E5
:102F60000000002002900020ADF804000020ADF821
:102F700006004046FEF74AF80290DFF824532888FE
:102F8000002801D028698047DFF81803007800285E
:102F900000F033812888002800F01181BDF9060077
:102FA000411CADF806103A00010089B20020EB6820
:102FB000984747464046FEF729F802906888A97965
:102FC00090FBF1F0ADF804003800471C00780028B1
:102FD000FAD10020ADF800000EE07F1E38782F28CF
:102FE00002D038785C2804D1BDF80000401CADF850
:102FF00000000298401E0290BDF80000022802DA8C
:1030000002980028E9D50298002806D47A1CDFF837
:10301000981253A800F05AFA0EE0BDF800000028FC
:1030200005D13A00A14953A800F050FA04E03A0053
:103030009D4953A800F04AFA0020ADF8020042E092
:10304000BDF80010BDF80020BDF8023053AF9BB2B0
:10305000BDF90400434313FA82F0385C43AA89B2F5
:103060005054BDF80000401CADF80000BDF8000051
:1030700080B2BDF9041088420EDA53A8FDF7C6FFEE
:10308000BDF80020BDF802309BB2BDF904104B43DF
:1030900013FA82F18842D3D2002043A9BDF8002060
:1030A0008854BDF90600411CADF8061043AAE97921
:1030B00011FB00F189B20020EB689847BDF80200CF
:1030C000401CADF80200BDF8027053A8FDF79EFF4A
:1030D000BDF90410B0FBF1F0401CBFB2874203D22F
:1030E0000020ADF80000C1E73200714953A800F09C
:1030F000EDF9BDF90600411CADF8061053AAE979B7
:1031000011FB00F189B20020EB689847002C74D0C5
:103110000020ADF8020041E0BDF80010BDF800202D
:10312000BDF802309BB2BDF90400434313FA82F0AC
:10313000205C43AA89B25054BDF80000401CADF891
:103140000000BDF8000080B2BDF9041088420EDA1C
:103150002000FDF75BFFBDF80020BDF802309BB2F8
:10316000BDF904104B4313FA82F18842D4D20020F7
:1031700043A9BDF800208854BDF90600411CADF8F4
:10318000061043AAE97911FB00F189B20020EB682F
:103190009847BDF80200401CADF80200BDF802607F
:1031A0002000FDF733FFBDF90410B0FBF1F0401C27
:1031B000B6B2864221D20020ADF80000C1E74FF43C
:1031C000807100220DF10C094846FEF709FF380016
:1031D000A9688847002C07D000943300424635493F
:1031E00003A800F073F905E033004246324903A812
:1031F00000F06CF903A8A96888470DF5137DBDE8B8
:10320000F08338B50C001500C0B2002803D12B485C
:103210000078002800D131BD29490878002800D065
:10322000FEE70878401C087000F0BAF900232A0075
:1032300021002448FFF787FEFFF764FEF6E7002130
:1032400001804FF6FF7141808180FF218171C17142
:10325000002181600021C160002101617047104997
:1032600002880A8042884A8082888A8082798A71AC
:10327000C279CA7182688A60C268CA6000690861DE
:10328000012008490870704700B585B06846FFF70F
:10329000D6FF0D4802906846FFF7E1FF05B000BD7C
:1032A000DC5F0A2850600A28E04D2810C04D281025
:1032B000EC4D2810244D2810A84D28101A070A2874
:1032C00051600A28D04D28103B2F28100069C840B3
:1032D00010F001007047012212FA01F1816070477D
:1032E000012212FA01F14160704710B48900436C69
:1032F0000F248C40A34312F00F0212FA01F119437C
:10330000416410BC704780B5C9B200290ED00100DD
:10331000C9B2082291FBF2F302FB1311494AC0B271
:10332000C010C0011044FFF7D6FF0DE00100C9B284
:10333000082291FBF2F302FB1311424AC0B2C01003
:10334000C0011044FFF7CCFF01BD80B50100C9B238
:10335000082291FBF2F302FB13113A4AC0B2C010EB
:10336000C0011044FFF7B2FFC0B202BD10B5C9B230
:1033700000290BD1D2B2002A02D0022A02D003E0E7
:103380000F220BE00B2209E00A2207E0D2B2042A46
:1033900001D10C2200E00E2212F007020100C9B296
:1033A000082391FBF3F403FB1411264BC0B2C010A9
:1033B000C0011844FFF799FF10BD2DE9F8418DB009
:1033C00004000E0015001F0034210022E84640468C
:1033D000FEF706FEF6B2002E0ED1FFB2002F02D08D
:1033E000022F03D005E00F2001900DE0082001908E
:1033F0000AE00820019007E0FFB2042F02D10F205D
:10340000019001E00E2001902000C0B2C0280FD032
:103410002100C9B208206A4691FBF0F300FB1311AA
:1034200008482300DBB2DB10DB01184400F06BF925
:103430002900C9B22000C0B2FFF765FF0EB0BDE899
:10344000F081000000003140C0F840127047D0F811
:103450000802C005C00D7047D0F80802C0F3C030A4
:10346000704738B505002800FFF7F1FF0400280079
:10347000FFF7F2FF0419002C01D1012000E0002029
:10348000C0B232BD38B50400DFF83C50C9B22000EC
:10349000C0B255F82000FFF7D7FF2000C0B255F8A2
:1034A0002000FFF7DEFF0028F7D031BD38B504005B
:1034B0000D0005E029782000C0B2FFF7E3FF6D1C86
:1034C00028780028F6D131BDFC060A280CB430B5A6
:1034D00083B00A4606A9029104460025019400958E
:1034E00002AB01A9084878441E30FCF7CCFD019AD4
:1034F000157000284EBF04460198041B204603B0F7
:1035000030BC5DF80CFB00BFBBDAFFFF010009B265
:10351000002908D4012210F01F018A401B4900B283
:10352000400941F820207047010009B2002908D461
:10353000012210F01F018A40154900B2400941F8EC
:1035400020207047020012B2002A04D44901114A17
:1035500000B2115407E049010F4A00B210F00F0009
:10356000104400F8041C7047002800D162B60B48D4
:103570000168491C0160704772B608490868002854
:1035800002D00868401E08600868704700E100E04B
:1035900080E200E000E400E018ED00E030600A287E
:1035A00080B5FFF7E9FF00F0EDF801BD80B5C9B2C5
:1035B00000B2FFF7C7FF01BD70B504000D00160093
:1035C000200000F0EFF82900B4F9000000F029F91C
:1035D0003100C9B2B4F90200FFF7E8FFB4F9020004
:1035E000FFF7A2FFB4F90200FFF790FF70BD0000E3
:1035F00030B4614B1818C009604C14EB0014042956
:103600000DD223681F25C8008540AB43D2B212F00B
:103610001F02C90012FA01F1194321600CE0091FD1
:1036200063681F25C8008540AB43D2B212F01F0269
:10363000C9008A401A43626030BC7047002A04D136
:10364000012212FA01F1416003E0012212FA01F1B4
:103650008160704710B48900436C0F248C40A343F1
:1036600012F00F0212FA01F11943416410BC7047C5
:1036700010B4836C01248C40A34312F0010212FAAF
:1036800001F11943816410BC704710B4C36C01246C
:103690008C40A34312F0010212FA01F11943C164F4
:1036A00010BC704710B449001031C36C03248C4027
:1036B000A34312F0030212FA01F11943C16410BCD2
:1036C00070474269012212FA01F141614069704775
:1036D00010B4836901248C40A34312F0010212FA52
:1036E00001F11943816110BC704710B44900036CAB
:1036F00003248C40A34312F0030212FA01F1194390
:10370000016410BC7047F8B505000E0014000027D6
:10371000002D2ED0002C2CD0226831002800FFF77D
:103720008DFF227A31002800FFF762FF62693100C5
:103730002800FFF79DFFA26931002800FFF7A5FFD1
:10374000E26931002800FFF7ADFF62683100280010
:10375000FFF780FFE26831002800FFF7C6FF310065
:103760002800FFF7AEFF226931002800FFF7B0FF05
:1037700000E0034F3800F2BD0000CFBF0000304032
:1037800001005A00002007E00549C2018A5822F0D2
:103790000042C301CA50401C3F28F5DB70470000BF
:1037A0000000584030B40021234A1368234A1468AB
:1037B000002832D0224A1568C5F303250E2D0FD0FC
:1037C0001268C2F303220D2A28D1827812F00F0268
:1037D0002409240114430279002A15D0012214E09F
:1037E000827812F00F021B091B0113430279002A91
:1037F00001D0012200E0002262F3DF73114AB0F928
:10380000000042F8203009E0002262F3DF740E4A23
:10381000B0F9000042F8204000E00649080030BC42
:1038200070470A4B1A68002A03D01A6800B242F89F
:1038300020107047010056002C4E2810304E2810E2
:103840000000204000A0204000C02040F8060A28C8
:10385000022801D3012010E00B00DBB2042B01DBB6
:1038600001200AE0DFF8C03303EB8000C9B2405CFE
:10387000824201D3012000E000207047F8B5060025
:103880000F0015001C00022E01D301201DE02A00AC
:103890003900C9B23000FFF7DBFF012801D1012058
:1038A00013E03800C0B2002812D1B4F5807F0DD2E9
:1038B000DFF878037603304400EB850010F5805084
:1038C000016864F30F2101600020F2BD0120FCE7D4
:1038D000FFB2012F10D1B4F5803F0BD2D34876034D
:1038E000304400EB850010F5A050016864F3172107
:1038F0000160E9E70120E8E70120E6E700B20012F5
:10390000C0B27047F8B505000E001700280000B2DD
:10391000FFF7F4FF04002000C0B2022801D3012009
:1039200023E03A003100C9B22000C0B2FFF790FF97
:10393000012801D1012018E0BC492000C0B2400399
:1039400008442A00D2B200EB8200D0F8000CF6B294
:1039500066F3092067F30700E4B264032144EDB283
:1039600001EB8501C1F8000C0020F2BD70B5040028
:103970000D001600022C01D301201CE032002900AA
:10398000C9B22000FFF764FF012801D1012012E035
:10399000A6496003085850F0004050F0407050F4C1
:1039A0007F00EDB265F3092066F3070062038850DB
:1039B00064030859002070BD10B59D4800F027FA37
:1039C00045F6200213009B490C00012B0EDB14F07E
:1039D0001F00C318BFF34F8F974804602034203B6B
:1039E000012BF9DABFF34F8FBFF36F8F934C200099
:1039F000FDF754FB01209249087010BD10B596B038
:103A000040F26114002201212000FFF77BFF20001B
:103A1000FFF774FF092300220121C0B2FFF72EFF38
:103A20002000FFF76BFF00220121C0B2FFF79EFFCD
:103A30004FF4CD70ADF800000320ADF80200012076
:103A40008DF8040000227F496846FFF7B5FD50213C
:103A5000002202AC2000FEF7C3FA002002900020F2
:103A60008DF80C0001208DF80D0000208DF80E005F
:103A700000208DF8100003208DF84C0001201490D8
:103A800000208DF8540000208DF85500684C02A9E4
:103A9000200000F0EFF8200000F0ACF9200000F06A
:103AA000B0F9694800F0BBF916B010BD80B500212F
:103AB00080B2FEF7E7FEC0B202BD10B58EB00124A1
:103AC0008A20009089234FF4C87200210AA8FFF7CA
:103AD000DBF90AA8FEF72AFB002817D168465B49E4
:103AE0002822FDF7EBFA5A480178491CBC2211FB49
:103AF00002F1ADF812100078401C782110FB01F0A3
:103B0000ADF816006846FEF741FB04002000C0B285
:103B10000EB010BD2DE9F8430020BFF34F8FBFF367
:103B20006F8F4C4C206830F4003020604A4E0020EB
:103B30003060BFF34F8FBFF36F8F484F0020386066
:103B4000BFF34F8F206830F480302060BFF34F8F79
:103B5000DFF80C81D8F80010C1F34E32C1F3C9036D
:103B600043F6E07515EA421050EA8370DFF8F4C0BE
:103B7000CCF800001800431E0028F1D11000421EAE
:103B80000028EBD1BFF34F8FBFF36F8F78203649FA
:103B90000880BC2035490880FFF78FFF81464846E2
:103BA000C0B2002801D1FFF729FF2068800311D49B
:103BB000BFF34F8FBFF36F8F00203060BFF34F8F85
:103BC000BFF36F8F206850F400302060BFF34F8F39
:103BD000BFF36F8F2068C00321D400203860BFF38B
:103BE0004F8FD8F80010C1F34E32C1F3C90315EA64
:103BF000421050EA83701E4E30601800431E0028A9
:103C0000F5D11000421E0028EFD1BFF34F8F20687E
:103C100050F480302060BFF34F8FBFF36F8F484662
:103C2000C0B2BDE8F2830000044E2810000004403A
:103C3000801D5840246002285CEF00E01C070A2821
:103C400052600A28B9392810001E5840104C28101C
:103C500053600A2814ED00E050EF00E084ED00E02E
:103C600080ED00E074EF00E0F06B0028F26B0028BC
:103C700060EF00E010B4012291F84C30052B03D224
:103C800091F84D30052B01D31000A7E0002800F07B
:103C9000A480002900F0A180514A12684B7963F397
:103CA00092428B7913F0030363F311420B7A13F002
:103CB000070363F31A62CB7963F39E720B7D63F3A0
:103CC000000291F8243063F3410202600A7910F196
:103CD00030031C6862F307041C604A79012A0BD187
:103CE0008A79002A02D10022826007E08A79012ABB
:103CF00004D10A68826001E001228260CA68026120
:103D00000A694261CA6982610A6AC2610A6802621A
:103D1000344A12680B7E03F0FF03120A12021A43A0
:103D200091F8303003F0FF0363F3174291F840300D
:103D300003F0FF0363F31F6291F8483003F0FF03C1
:103D400063F30F224264284A126891F8383003F076
:103D5000FF03120A12021A4391F8283003F0FF03FE
:103D600063F30F228264214A12688B7D13F00303F0
:103D7000920892001A4391F8253013F0030363F37D
:103D80008B2291F82C3013F0030363F3051291F8A2
:103D9000343013F0030363F3092291F83C3013F03D
:103DA000030363F3871291F8443013F0030363F3C2
:103DB0008302C2640E4A126891F84C3013F0070374
:103DC000D208D2001A4391F84D3013F0070363F381
:103DD00006124265497D81670022100010BC7047C1
:103DE000344E2810384E28103C4E2810404E2810D3
:103DF000444E2810016851F0004101607047816015
:103E000070477830016851F001010160704710F18E
:103E100070010A6852F001020A60006F704740307A
:103E2000016851F01001016070470000022801D3C1
:103E300001200FE00B00DBB2042B01DB012009E0C5
:103E40007D4B03EB8000C9B2405C824201D301206C
:103E500000E000207047F8B506000F0015001C00B8
:103E6000022E01D301201CE02A003900C9B2300023
:103E7000FFF7DCFF012801D1012012E03800C0B2B9
:103E8000002811D1B4F5807F0CD26C487603304401
:103E900000EB850010F58050016864F30F2101608C
:103EA0000020F2BD0120FCE7FFB2012F10D1B4F5D4
:103EB000803F0BD261487603304400EB850010F55B
:103EC000A050016864F317210160E9E70120E8E7E9
:103ED0000120E6E700B20012C0B27047F8B5050055
:103EE0000E001700280000B2FFF7F4FF04002000C6
:103EF000C0B2022801D3012023E03A003100C9B248
:103F00002000C0B2FFF792FF012801D1012018E084
:103F10004A492000C0B2400308442A00D2B200EB54
:103F20008200D0F8000CF6B266F3092067F30700B0
:103F3000E4B264032144EDB201EB8501C1F8000C49
:103F40000020F2BD70B504000D001600022C01D354
:103F500001201CE032002900C9B22000FFF766FFF3
:103F6000012801D1012012E034496003085850F0C3
:103F7000004050F0407050F47F00EDB265F309202E
:103F800066F307006203885064030859002070BD7F
:103F900038B594B0502100226C462000FEF720F87E
:103FA000294C00220121B4F90000FFF797FFB4F972
:103FB0000000FFF78FFF092300220121C0B2FFF7A5
:103FC0004AFFB4F90000FFF785FF00220121C0B2CB
:103FD000FFF7B8FF5FF0FF30009000208DF804007D
:103FE00000208DF8050000208DF8060000208DF8D7
:103FF000080003208DF844000120129001208DF864
:1040000007000F4C0F4D69462078C0012844FFF788
:1040100031FE2078C0012844FFF7ECFE0021207813
:10402000C0012844FFF7EBFE2078C0012844FFF7C9
:10403000F6FE15B030BD0000044E2810000004400C
:104040001B070A280000594018070A2838B500F055
:1040500077F900F042F800F0C9F871490868800368
:1040600012D4BFF34F8FBFF36F8F00206D4A1060E3
:10407000BFF34F8FBFF36F8F086850F400300860B4
:10408000BFF34F8FBFF36F8F0868C00324D40020A5
:10409000654A1060BFF34F8F64480268C2F34E3325
:1040A000C2F3C90443F6E07010EA431050EA84708A
:1040B0005F4D28602000441E0028F3D11800431EE5
:1040C0000028EDD1BFF34F8F086850F480300860AE
:1040D000BFF34F8FBFF36F8F31BD70B586B06846A9
:1040E00054491822FCF7EAFF00200AE06946020062
:1040F000D2B201EBC2014968491C11F0070F0DD182
:10410000401C0100C9B2032909D269460200D2B29B
:1041100011F8321011F0070FE8D0FEE7FEE7464C29
:10412000207810F0070F00D0FEE7444D2868401CAF
:1041300010F0070F00D0FEE7002622E068463100AD
:10414000C9B200EBC10041683000C0B252F8300083
:1041500000F043F814E000200028EFD02168491E49
:104160003000C0B252F8300000F037F86846310035
:10417000C9B200EBC10041682868401C00F02DF86E
:10418000761C3000C0B2032825D26A463000C0B287
:1041900052F83000002813D020683100C9B252F81C
:1041A000311088420AD368463100C9B200EBC10021
:1041B00040682168884201D30120CDE70020CBE789
:1041C00068463100C9B200EBC100406821688842EE
:1041D000C1D30120C0E706B070BD0022002302E079
:1041E000C0E9002308308842FAD3704730B414483D
:1041F00080081449144A002308E01C00E4B252F875
:1042000024401D00EDB241F825405B1C1C00050058
:10421000E4B2EDB2AC42F0D30C48016030BC704760
:1042200014ED00E050EF00E084ED00E080ED00E0F0
:1042300060EF00E0784D2810D04B2810D44B2810A8
:104240008000000080600A280000281008ED00E0CF
:1042500010B5002042490860BFF34F8F4148016804
:10426000C1F34E32C1F3C90343F6E07010EA4210C5
:1042700050EA83703C4C20601800431E0028F3D1A4
:104280001000421E0028EDD1BFF34F8FBFF36F8F98
:10429000BFF34F8FBFF36F8F002034490860BFF327
:1042A0004F8FBFF36F8F00F001F810BD38B586B0A7
:1042B00068462F491822FCF701FF6846FDF738FBD6
:1042C000C0B200280DD02B4C18222B492000FDF73E
:1042D000FBFD0020E0754E20284908600020FDF716
:1042E0002BFE274D2800FDF7C5FDC0B200280DD0DC
:1042F000204C182220492000FDF7E6FD0020E07543
:1043000050201E4908600020FDF716FE1D49286850
:1043100008600A681C4882181C48B2FBF0F01C4A6E
:1043200010601C48096801F2E7314FF47A72B1FB62
:10433000F2F101600068C0031749086007B030BDA2
:1043400080B500F02DF815490A6852F470020A6031
:10435000BFF34F8FBFF36F8F00F026F801BD000051
:1043600084ED00E080ED00E074EF00E050EF00E04D
:10437000904D2810C45F0A28B049281014600A28FC
:1043800018600A281C600A283F420F0040420F00B4
:1043900024600A2820600A2828600A2888ED00E0A6
:1043A000EFF3108072B6704780F3108870470000FA
:1043B000010009B2002908D4012210F01F018A402F
:1043C0004F4900B2400941F820207047FEE780B510
:1043D0004C4800684C4801680800C00F002805D010
:1043E0004A488905890D50F8210080470020FFF7D1
:1043F000DFFF01BD80B546480068464801680800F7
:10440000C00F002805D041488905890D50F82100CA
:1044100080470120FFF7CCFF01BD80B53E48006812
:104420003E4801680800C00F002805D037488905BC
:10443000890D50F8210080470220FFF7B9FF01BD28
:1044400080B537480068374801680800C00F002869
:1044500005D02E488905890D50F82100804703209A
:10446000FFF7A6FF01BD80B52F4800682F480168FF
:104470000800C00F002805D024488905890D50F890
:10448000210080470420FFF793FF01BD80B5284835
:104490000068284801680800C00F002805D01B48A4
:1044A0008905890D50F8210080470520FFF780FF1E
:1044B00001BD80B520480068204801680800C00F91
:1044C000002805D011488905890D50F82100804742
:1044D0000620FFF76DFF01BD80B519480068194837
:1044E00001680800C00F002805D008488905890D1B
:1044F00050F8210080470720FFF75AFF01BD000058
:1045000080E200E00C4E2810000520400C000A2834
:10451000104E281004052040144E28100805204095
:10452000184E28100C0520401C4E28101005204065
:10453000204E281014052040244E28101805204035
:10454000284E28101C0520402DE9F04300220024AD
:10455000BC2378254D490878002829D04C4890ED97
:10456000000ABDEEC00A10EE102A323A002A00D529
:10457000002290ED000ABDEEC00A10EE103A323370
:10458000BD2B00DBBC23434890ED000ABDEEC00A02
:1045900010EE104A323C002C00D5002490ED000AA9
:1045A000BDEEC00A10EE105A3235792D00DB7825A9
:1045B0000020002600275FF0000C1EE0DFF8D88006
:1045C0005FF0BC0909FB04F9C84418F80E80C14625
:1045D0005FFA89F9CC4502DAC4465FFA8CFC5FFACF
:1045E00088F8B8F11F0F03DB1EEB0000A6197F1C33
:1045F0001EF1010E9E45E1DB641CAC4201DA9646D9
:10460000F8E7264A1760264A82F800C03A1F41F2AE
:104610006D739A4206D30020224A10700020087061
:1046200000202DE000EE100AB8EEC00A00EE907AED
:10463000F8EEE00A80EE200A00EE906AF8EEE00A5A
:1046400001EE107AB8EEC11AC0EE810A104880ED72
:10465000000A1048C0ED000A012008709FED091AF9
:1046600070EE810A1048C0ED000ADFED070A30EE57
:10467000200A0E4880ED000A01200A490870012036
:10468000BDE8F08300006EC20000BBC24E600A2885
:104690000C600A2810600A281C070A2808600A28EB
:1046A0004D600A284C600A2800600A2804600A2825
:1046B0000020454908600020444908800020444902
:1046C00008800020434908800020434908700020EA
:1046D00042490870704730B4029C3C4D28803C48E9
:1046E00001803C4803803C4804703C4802703648D6
:1046F0000168491C016030BC70471CB5384800F0A7
:1047000085F8FEF7C1FD002036490860BFF34F8FE2
:104710003548016831F480310160BFF34F8F334871
:104720000168C1F34E32C1F3C90343F6E07010EAE9
:10473000421050EA83702E4C20601800431E00285F
:10474000F3D11000421E0028EDD1BFF34F8FBFF30D
:104750006F8FFFF7DFF94FF48C70FFF7A7F9FFF7C2
:10476000A7FF0CE0234800780090234803681BB2A1
:10477000002200210020FFF7AEFF002020701F4C18
:1047800020780028FBD0FFF7DFFE1D4800780028C6
:10479000E8D0184800780090174803681BB201223F
:1047A000184890ED000ABDEEC00A10EE101A09B2CA
:1047B000154890ED000ABDEEC00A10EE100A00B2D6
:1047C000FFF789FFD9E7000000000A2804000A2843
:1047D00006000A2808000A280B000A280A000A28EE
:1047E00080B2E60E84ED00E014ED00E080ED00E024
:1047F00074EF00E04D600A2808600A2852600A2819
:104800004C600A2804600A2800600A2880B505491F
:104810000860FFF71DFDFFF7BBFB0020FEF7A4FEBD
:1048200001BD00002C600A28453A5C77656978690B
:104830006E5C787765636861745F66696C65735CEC
:10484000777869645F7864323334396166347433FD
:104850007232325F663037355C6D73675C66696CE7
:10486000655C323032362D30365C43595434424226
:10487000375F4C6962726172792D6D617374657214
:104880002D362D3631313131313131313131315CEB
:104890005365656B667265655F4359543442425F88
:1048A0004F70656E736F757263655F4C696272619C
:1048B00072795C6C69627261726965735C73646B56
:1048C0005C747669696268346D5C7372635C64728F
:1048D00069766572735C737973636C6B5C63795F23
:1048E000737973636C6B2E6800000000453A5C7747
:1048F000656978696E5C787765636861745F66691D
:104900006C65735C777869645F78643233343961DD
:10491000663474337232325F663037355C6D73677C
:104920005C66696C655C323032362D30365C4359DA
:1049300054344242375F4C6962726172792D6D6105
:10494000737465722D362D3631313131313131315B
:104950003131315C5365656B667265655F435954EF
:104960003442425F4F70656E736F757263655F4C62
:104970006962726172795C6C696272617269657395
:104980005C73646B5C747669696268346D5C7372C5
:10499000635C647269766572735C737973636C6B64
:1049A0005C63795F737973636C6B2E630000000046
:1049B000453A5C77656978696E5C787765636861AC
:1049C000745F66696C65735C777869645F7864327C
:1049D00033343961663474337232325F663037355E
:1049E0005C6D73675C66696C655C323032362D30A5
:1049F000365C435954344242375F4C69627261728B
:104A0000792D6D61737465722D362D3631313131EA
:104A1000313131313131315C5365656B66726565B9
:104A20005F4359543442425F4F70656E736F7572C5
:104A300063655F4C6962726172795C6C6962726114
:104A4000726965735C73646B5C74766969626834FF
:104A50006D5C7372635C73797374656D5C73797389
:104A600074656D5F747669696268346D5F636D3714
:104A70002E630000453A5C77656978696E5C7877EB
:104A800065636861745F66696C65735C7778696497
:104A90005F78643233343961663474337232325F32
:104AA000663037355C6D73675C66696C655C3230A7
:104AB00032362D30365C435954344242375F4C69AC
:104AC00062726172792D6D61737465722D362D3647
:104AD00031313131313131313131315C5365656BD7
:104AE000667265655F4359543442425F4F70656E2C
:104AF000736F757263655F4C6962726172795C6C29
:104B000069627261726965735C7A665F6472697604
:104B100065725C7A665F6472697665725F736F66F0
:104B2000745F6969632E630072B61D4908684FEAB5
:104B3000102000F00F000E2808BF1A490D2808BFEA
:104B40001949072808BF1949082808BF18490868E3
:104B500020F00B0008600868BFF34F8F1548164916
:104B60000860BFF34F8F1549086840F007000860E0
:104B70001349086840F007000860BFF34F8FBFF388
:104B80006F8F00200021124AE2E802016A45FBD142
:104B90000C4FB8470C4FB8470C4FB847FEE7000022
:104BA000000020400C0020400C0420400C08204055
:104BB0000C0C20400000281008ED00E090EF00E011
:104BC00094EF00E04D402810394C28105D4D28101E
:104BD00000FF0B28FFFF0B2830B4002512E050F82F
:104BE000042BD30744BF4A44521E091F042942F82C
:104BF000045BFAD213468C0744BF15809B1CC9077F
:104C000048BF1D7050F8041B0029E8D130BC704724
:104C100000000000010000000200900103003200CB
:104C2000040000000500000006000000070000006E
:104C3000080020000900000010B507497944183128
:104C4000064C7C44163404E00A68081D1144884769
:104C50000146A142F8D110BD2C0000004800000020
:104C60004EF68851CEF20001086840F470000860EA
:104C7000BFF34F8FBFF36F8F4FF00170E1EE100A5B
:104C80007047000055FFFFFF385900001C070A2835
:104C9000000000009BC2FFFFEC0100007800000054
:104CA0000C000A2804207146084202D0EFF3098064
:104CB00001E0EFF3088000B50149884700BD00001E
:104CC0003D1F281000000000000000000000000050
:104CD000801C800803D0401C801EFCD100BF7047A0
:104CE000EFF3108072B6704780F3108870470000B1
:104CF00000F00EF8002801D0FFF79EFFAFF3008010
:104D00000020AFF30080FFF7F8FC00F003F800008C
:104D10000020704700F000B807463846FCF756FC04
:104D2000FBE700000D0A66696C65202573206C693D
:104D30006E652025643A2025732E0D0A00000000C0
:104D400004207146084201D0EFF30980EFF3088098
:104D500000B50149884700BDF94D281005480146B6
:104D600003B4684680F30988AFF30080FFF778FF4B
:104D7000FFF7BEFFA5EDF5FE00000828FFFF0B289A
:104D800000000020FF3F002000000000FF3F000067
:104D900000127A00000000000024F40000800000EF
:104DA00000800000008000000D0A66696C65202507
:104DB00073206C696E652025642E0D0A00000000CA
:104DC00066696C653A206D646B2F257300000000E6
:104DD000417373657274206572726F720000000017
:104DE00066696C653A202573000000006C696E6589
:104DF0003A20256400000000816911F8021CC9B244
:104E00000160704703010000101100100000000055
:104E10000000000000000000000000000000000092
:104E20000000000000000000000000000000000082
:104E30000000000000000000000000000000000072
:104E40000000000000000000FFF7FEBFFFF72ABFD0
:104E5000FFF728BFFFF726BFFFF7FEBFFFF7FEBF34
:104E6000FFF7FEBFFFF7FEBFFFF7FEBFFFF7FEBF76
:104E7000FFF7FEBFFFF7FEBFFFF7FEBFFFF7FEBF66
:104E8000FFF7FEBFF002FFCD43281004F1FF04F14D
:104E9000FF04F1FF04F1FF04F1FF04F177041009AE
:104EA0000C000A280000604000006504126404122F
:104EB000630412620412670400046640780101076B
:104EC00000000000000000000000000000000000E2
:104ED00000000000000000000000000000000000D2
:104EE00000000000000000000000000000000000C2
:104EF00000000000000000000000000000000000B2
:104F000000000000000000000000000000000000A1
:104F10000000000000000000000000000000000091
:104F20000000000000000000000000000000000081
:104F30000000000000000000000000000000000071
:104F40000000000000000000000000000000000061
:104F50000000000000000000000000000000000051
:104F60000000000000000000000000000000000041
:104F70000000000000000000000000000000000031
:104F80000000000000000000000000000000000021
:104F90000000000000000000000000000000000011
:104FA0000000000000000000000000000000000001
:104FB00000000000000000000000000000000000F1
:034FC000000000EE
:0400000510284D5D15
:00000001FF
